:020000040800F2
:1000000000500020BD0F0008F50E0008FB0E000890
:10001000010F0008070F00080D0F00080000000086
:10002000000000000000000000000000130F0008A6
:100030001F0F0008000000002B0F0008370F0008FA
:10004000051000080510000805100008051000083C
:10005000051000080510000805100008051000082C
:10006000051000080510000805100008051000081C
:10007000051000080510000805100008051000080C
:1000800005100008051000080510000805100008FC
:1000900005100008051000080510000805100008EC
:1000A00005100008051000080510000805100008DC
:1000B00005100008051000080510000805100008CC
:1000C00005100008051000080510000805100008BC
:1000D00005100008051000080510000805100008AC
:1000E00005100008051000080510000800000000B9
:1000F0000000000000000000000000000000000000
:0C01000000000000000000005FF808F1A3
:10010C0010B5054C237833B9044B13B10448AFF345
:10011C0000800123237010BD680000200000000047
:10012C001831000808B5034B1BB103490348AFF362
:10013C00008008BD000000006C0000201831000891
:10014C00034613F8012B002AFBD1181A013870470B
:10015C0080B500AF00F052FF00F040F800F0ECF872
:10016C0000F096F800F080F800F0BCF8174800F0AA
:10017C003BF94FF4FA6000F0A3FF4FF40041144830
:10018C0001F070FC0346002B0FD1124800F02CF943
:10019C0001224FF480410E4801F07BFC4FF4FA60D1
:1001AC0000F08EFF00F076F9E7E70B4800F01CF941
:1001BC0001224FF40051064801F06BFC4FF4FA6039
:1001CC0000F07EFF00F036F9D7E700BF30310008B1
:1001DC00000C0140583100088C31000880B590B0FB
:1001EC0000AF07F1180328220021184602F0FCFA90
:1001FC003B1D00221A605A609A60DA601A61012372
:10020C00BB614FF48033FB6100233B620123BB6273
:10021C0002237B634FF48033BB634FF4E013FB6327
:10022C0007F11803184601F04DFC0346002B01D0D2
:10023C0000F07EFD0F237B600223BB600023FB607C
:10024C004FF480633B6100237B613B1D0221184608
:10025C0001F0BAFE0346002B01D000F069FD00BF8F
:10026C004037BD4680BD000080B500AF064B074A45
:10027C001A60054801F02BF80346002B01D000F062
:10028C0057FD00BF80BD00BF84000020003002403D
:10029C0080B500AF114B124A1A60104B4FF4E1328B
:1002AC005A600E4B00229A600C4B0022DA600B4B0A
:1002BC0000221A61094B0C225A61084B00229A61E8
:1002CC00064B0022DA61054802F00CF80346002BBD
:1002DC0001D000F02DFD00BF80BD00BF8C000020C0
:1002EC000044004080B500AF114B124A1A60104B0D
:1002FC004FF4E1325A600E4B00229A600C4B0022F4
:10030C00DA600B4B00221A61094B0C225A61084B24
:10031C0000229A61064B0022DA61054801F0E2FFE7
:10032C000346002B01D000F003FD00BF80BD00BFD1
:10033C00D40000200048004080B588B000AF07F121
:10034C00100300221A605A609A60DA60244B9B6991
:10035C00234A43F020039361214B9B6903F0200354
:10036C00FB60FB681E4B9B691D4A43F004039361C1
:10037C001B4B9B6903F00403BB60BB68184B9B6968
:10038C00174A43F008039361154B9B6903F008036C
:10039C007B607B6800224FF4C041124801F079FB6E
:1003AC004FF4C0433B6101237B610023BB610223FB
:1003BC00FB6107F1100319460A4801F0CFF94FF41D
:1003CC0000433B6100237B610123BB6107F11003F8
:1003DC001946044801F0C2F900BF2037BD4680BD64
:1003EC0000100240000C01400FB480B596B000AF75
:1003FC0007F164037B6007F108037A68396E1846CD
:10040C0002F0E8F907F108031846FFF799FE0346D6
:10041C009AB207F108014FF0FF33054801F0B2FF23
:10042C0000BF5837BD46BDE8804004B0704700BFE0
:10043C00D400002080B584B000AF1148FFF7D4FF82
:10044C004FF47A7000F03CFE0E4B1B68FB60F968B1
:10045C000D48FFF7C9FFFB683B603B6883F30888D6
:10046C0000BF0A4B1B68BB60BB687B60796808489F
:10047C00FFF7BAFF7B68984700BF1037BD4680BDB9
:10048C00CC31000800900008F831000804900008F6
:10049C001432000880B582B000AF0023FB71C82273
:1004AC000021344802F0A0F94FF0FF33012231490A
:1004BC00314801F0EAFF2F4B1B78FB71FB799AB2A4
:1004CC004FF0FF332D492C4801F0DFFF294B5B78AF
:1004DC00513B0B2B4AD801A252F823F01905000806
:1004EC002105000829050008310500083905000818
:1004FC004105000849050008510500085905000888
:10050C00610500086905000871050008194800F02C
:10051C0039F82EE0174800F07FF82AE0154800F073
:10052C00BBF826E0134800F017F922E0114800F060
:10053C0071F91EE00F4800F0FFF91AE00D4800F0C9
:10054C00ABFA16E00B4800F066FB12E0094800F02D
:10055C006BFB0EE0074800F070FB0AE0054800F06A
:10056C0075FB06E0034800F07AFB02E00448FFF755
:10057C003BFF94E71C0100208C0000201D01002093
:10058C004032000880B586B000AF78601D48FFF798
:10059C002BFF7B681B7801337B617B69043B7A689A
:1005AC0013441B683B617B69043B3A6919467868C4
:1005BC0000F08AFB0346002B1AD11348FFF714FFF7
:1005CC007B681B780121184600F052FB1023FB734B
:1005DC00FB7B1946FB7B1A460C48FFF705FF07F11E
:1005EC000F014FF0FF330122094801F0CBFE04E06C
:1005FC000848FFF7F9FE00F055FB00BF1837BD4661
:10060C0080BD00BF703200089C320008B832000870
:10061C008C000020D432000880B584B000AF786024
:10062C001848FFF7E1FE7B681B780133FB60FB6821
:10063C00043B7A6813441B68BB60FB68043BBA68D4
:10064C001946786800F040FB0346002B10D10E4889
:10065C00FFF7CAFE7B681B780A21184600F008FBDE
:10066C004FF0FF330A220949094801F08BFE04E0E0
:10067C000848FFF7B9FE00F015FB00BF1037BD4668
:10068C0080BD00BFEC3200089C3200080000002046
:10069C008C000020D432000880B586B000AF7860A2
:1006AC000023FB811E48FFF79FFE7B681B780133FC
:1006BC007B617B69043B7A6813441B683B617B69F3
:1006CC00043B3A691946786800F0FEFA0346002BA1
:1006DC001CD11448FFF788FE7B681B780221184652
:1006EC0000F0C6FA00F026F80346FB81FB89194698
:1006FC00FB891A460C48FFF777FE07F10E014FF005
:10070C00FF330222094801F03DFE04E00848FFF7E0
:10071C006BFE00F0C7FA00BF1837BD4680BD00BFA6
:10072C00183300089C320008443300088C00002069
:10073C00D432000880B483B000AF064B1B689BB268
:10074C00C3F30B03FB80FB8818460C37BD4680BCFB
:10075C00704700BF002004E080B586B000AF786021
:10076C000023FB811E48FFF73FFE7B681B7801339B
:10077C007B617B69043B7A6813441B683B617B6932
:10078C00043B3A691946786800F09EFA0346002B40
:10079C001CD11448FFF728FE7B681B7802211846F1
:1007AC0000F066FA00F026F80346FB81FB89194637
:1007BC00FB891A460C48FFF717FE07F10E014FF0A4
:1007CC00FF330222094801F0DDFD04E00848FFF781
:1007DC000BFE00F067FA00BF1837BD4680BD00BFA6
:1007EC005C3300089C320008883300088C00002021
:1007FC00D432000880B483B000AF054B7B607B68BB
:10080C001B687B807B8818460C37BD4680BC7047C4
:10081C0000F8FF1F80B588B000AF78600023FB6143
:10082C000023FB730123BB732B48FFF7DDFD7B68B3
:10083C001B780133BB61BB69043B7A6813441B68AA
:10084C007B61BB69043B7A691946786800F03CFA15
:10085C000346002B36D12148FFF7C6FD7B681B7879
:10086C000121184600F004FA7B6802331B78FB6107
:10087C00FA69F9691A48FFF7B7FDF86900F03AF818
:10088C000346002B12D107F10F014FF0FF33012269
:10089C00144801F077FDFB690133FB61FB693B6197
:1008AC001148FFF7A1FD3B69984710E00F48FFF78F
:1008BC009BFD07F10E014FF0FF330122094801F0B7
:1008CC0061FD04E00A48FFF78FFD00F0EBF900BF73
:1008DC002037BD4680BD00BFA43300089C32000801
:1008EC00D03300088C000020F433000814340008C6
:1008FC00D432000880B483B000AF78607B68B3F169
:10090C00005F05D37B680A4A934201D800230AE0B2
:10091C007B68B3F1006F05D37B68064A934201D81C
:10092C00002300E0012318460C37BD4680BC7047FD
:10093C00005000200000010880B586B000AF786040
:10094C000023FB732C48FFF74FFD7B681B780133AA
:10095C007B617B69043B7A6813441B683B617B6950
:10096C00043B3A691946786800F0AEF90346002B4F
:10097C0039D12248FFF738FD7B681B7801211846D6
:10098C0000F076F97B6802331B7819467B680333D9
:10099C001B781A461A48FFF727FD01224FF48041B5
:1009AC00184801F076F87B6802331A787B680333B9
:1009BC001B781946104600F02DF80346FB730022F5
:1009CC004FF480410F4801F064F8FB7B19460E4848
:1009DC00FFF70AFD07F10F014FF0FF3301220B481F
:1009EC0001F0D0FC04E00A48FFF7FEFC00F05AF9D5
:1009FC0000BF1837BD4680BD303400089C3200085B
:100A0C0060340008000C0140903400088C00002079
:100A1C00D432000880B58AB000AF03460A46FB7199
:100A2C001346BB71BB79402B01D9012330E0FB7914
:100A3C00FF2B07D0FB793F2B29D8FA79BB791344CC
:100A4C00402B24DCFB79FF2B02D102233B610AE013
:100A5C00FB7903F500339B027B6200233B617B6ACD
:100A6C00BB61BB79FB6101237B6100F0E7FC07F103
:100A7C000C0207F110031146184600F0C7FD03469F
:100A8C0087F8233000F000FD97F8233000E00123B5
:100A9C0018462837BD4680BD80B588B000AF786059
:100AAC000023FB730023FB770023BB777B681B7849
:100ABC00BB777B689B797B777B68D3F80230BB6113
:100ACC00BB7F7A6813441B78FB773348FFF78CFCA9
:100ADC007B681B7801337B617B69043B7A68134428
:100AEC001B683B617B69043B3A691946786800F0E6
:100AFC00EBF80346002B46D12848FFF775FC7B68C2
:100B0C001B780121184600F0B3F8B9692448FFF7A7
:100B1C006BFCB869FFF7EEFE0346002B25D121488C
:100B2C00FFF762FC01224FF480411F4800F0B1FF37
:100B3C007B6807337A7FB969184600F03FF80346A3
:100B4C00FB7300224FF48041174800F0A2FFFB7B9F
:100B5C0019461648FFF748FC07F10F014FF0FF3319
:100B6C000122134801F00EFC12E01248FFF73CFC86
:100B7C000123FB7307F10F014FF0FF3301220C48E7
:100B8C0001F000FC04E00C48FFF72EFC00F08AF8A2
:100B9C0000BF2037BD4680BDB03400089C32000831
:100BAC00E034000804350008000C0140243500082E
:100BBC008C00002014340008D4320008B0B586B084
:100BCC0000AFF860B9607A600023FB7500F036FC6A
:100BDC0000233B6114E0BA683B69D118FA683B69A1
:100BEC0013441B78DBB200221C46154622462B46CA
:100BFC00012000F0B3FB0346FB753B6901333B61FD
:100C0C003A697B689A42E6D300F03EFCFB7D1846BD
:100C1C001837BD46B0BD80B483B000AF786000BF5C
:100C2C000C37BD4680BC704780B483B000AF786091
:100C3C0000BF0C37BD4680BC704780B483B000AF9A
:100C4C00786000BF0C37BD4680BC704780B483B061
:100C5C0000AF786000BF0C37BD4680BC704780B4D5
:100C6C0083B000AF786000BF0C37BD4680BC7047C6
:100C7C0080B584B000AF03460A46FB711346BB71C6
:100C8C00A5233B73BB797B7307F10C014FF0FF334A
:100C9C000222034801F076FB00BF1037BD4680BD31
:100CAC008C00002080B582B000AF7F23FB71F91D52
:100CBC004FF0FF330122034801F064FB00BF0837FB
:100CCC00BD4680BD8C00002080B588B000AFF860B8
:100CDC00B9607A60FF23FB610023BB610FE0FA6807
:100CEC00BB6913441B787B6107F11403012219467D
:100CFC000E4800F008FBF861BB690133BB61BA69AF
:100D0C00BB689A42EBD3094B1B689A68074B1B686C
:100D1C0042F001029A60FA697B689A4201D1002381
:100D2C0000E0012318462037BD4680BD840000201A
:100D3C0080B400AF72B600BFFEE7000080B485B08F
:100D4C0000AF154B9B69144A43F001039361124B9E
:100D5C009B6903F00103BB60BB680F4BDB690E4A58
:100D6C0043F08053D3610C4BDB6903F080537B6001
:100D7C007B680A4B5B68FB60FB6823F0E063FB60FD
:100D8C00FB6843F08063FB60044AFB68536000BF60
:100D9C001437BD4680BC7047001002400000014073
:100DAC0080B485B000AF78607B681B68094A9342B9
:100DBC000BD1094B5B69084A43F040035361064B66
:100DCC005B6903F04003FB60FB6800BF1437BD4652
:100DDC0080BC7047003002400010024080B58AB0E1
:100DEC0000AF786007F1180300221A605A609A600D
:100DFC00DA607B681B68374A934230D1364BDB692B
:100E0C00354A43F40033D361334BDB6903F40033CD
:100E1C007B617B69304B9B692F4A43F004039361E0
:100E2C002D4B9B6903F004033B613B690423BB61BD
:100E3C000223FB6103237B6207F118031946274841
:100E4C0000F08CFC0823BB610023FB6100233B6298
:100E5C0007F118031946214800F080FC36E07B6846
:100E6C001B681F4A934231D11B4BDB691A4A43F46E
:100E7C008023D361184BDB6903F48023FB60FB6890
:100E8C00154B9B69144A43F008039361124B9B6901
:100E9C0003F00803BB60BB684FF48063BB610223A3
:100EAC00FB6103237B6207F1180319460D4800F020
:100EBC0055FC4FF40063BB610023FB6100233B62D4
:100ECC0007F118031946074800F048FC00BF283703
:100EDC00BD4680BD004400400010024000080140A7
:100EEC0000480040000C014080B400AFFEE780B425
:100EFC0000AFFEE780B400AFFEE780B400AFFEE7C2
:100F0C0080B400AFFEE780B400AF00BFBD4680BC2C
:100F1C00704780B400AF00BFBD4680BC704780B442
:100F2C0000AF00BFBD4680BC704780B500AF00F07D
:100F3C00ABF800BF80BD000080B586B000AF786014
:100F4C00144A154BD31A7B617B693B61134B1B68AD
:100F5C00002B02D1114B124A1A60104B1A687B6895
:100F6C0013443A699A4207D201F046FC03460C221C
:100F7C001A604FF0FF3309E0084B1B68FB60074B0E
:100F8C001A687B681344054A1360FB6818461837C7
:100F9C00BD4680BD0050002000040000E40100208C
:100FAC005803002080B400AF00BFBD4680BC704722
:100FBC00FFF7F8FF0B480C490C4A002302E0D45809
:100FCC00C4500433C4188C42F9D3094A094C002389
:100FDC0001E013600432A242FBD301F013FCFFF7D3
:100FEC00B7F870470000002068000020AC350008FE
:100FFC006800002058030020FEE7000080B500AF19
:10100C00084B1B68074A43F010031360032000F0E1
:10101C002BF90F2000F008F8FFF790FE002318467C
:10102C0080BD00BF0020024080B582B000AF786068
:10103C00124B1A68124B1B7819464FF47A73B3FB98
:10104C00F1F3B2FBF3F3184600F035F90346002B2D
:10105C0001D001230EE07B680F2B0AD8002279689F
:10106C004FF0FF3000F00BF9064A7B681360002349
:10107C0000E0012318460837BD4680BD0C00002057
:10108C00140000201000002080B400AF054B1B782A
:10109C001A46054B1B681344034A136000BFBD4638
:1010AC0080BC704714000020E801002080B400AF21
:1010BC00024B1B681846BD4680BC7047E8010020F7
:1010CC0080B584B000AF7860FFF7F0FFB8607B6844
:1010DC00FB60FB68B3F1FF3F05D00A4B1B781A4647
:1010EC00FB681344FB6000BFFFF7E0FF0246BB68E0
:1010FC00D31AFA689A42F7D800BF00BF1037BD4622
:10110C0080BD00BF1400002080B485B000AF7860B3
:10111C007B6803F00703FB600C4BDB68BB60BA68B1
:10112C004FF6FF031340BB60FB681A02BB68134306
:10113C0043F0BF6343F40033BB60044ABB68D36025
:10114C0000BF1437BD4680BC704700BF00ED00E007
:10115C0080B400AF044BDB681B0A03F0070318468E
:10116C00BD4680BC704700BF00ED00E080B483B08A
:10117C0000AF03463960FB7197F90730002B0ADB8F
:10118C003B68DAB20C4997F907301201D2B20B4422
:10119C0083F800230AE03B68DAB20849FB7903F0D4
:1011AC000F03043B1201D2B20B441A7600BF0C376A
:1011BC00BD4680BC704700BF00E100E000ED00E0E0
:1011CC0080B489B000AFF860B9607A60FB6803F056
:1011DC000703FB61FB69C3F10703042B28BF04233E
:1011EC00BB61FB690433062B02D9FB69033B00E0AE
:1011FC0000237B614FF0FF32BB6902FA03F3DA4341
:10120C00BB681A407B699A404FF0FF317B6901FA49
:10121C0003F3D9437B680B40134318462437BD4670
:10122C0080BC704780B582B000AF78607B68013BB2
:10123C00B3F1807F01D301230FE00A4A7B68013BA5
:10124C0053600F214FF0FF30FFF790FF054B00224A
:10125C009A60044B07221A60002318460837BD46D3
:10126C0080BD00BF10E000E080B582B000AF7860B8
:10127C007868FFF749FF00BF0837BD4680BD80B5D1
:10128C0086B000AF0346B9607A60FB7300237B61C4
:10129C00FFF75EFF78617A68B9687869FFF790FFAD
:1012AC00024697F90F3011461846FFF75FFF00BF53
:1012BC001837BD4680BD80B582B000AF78607868C5
:1012CC00FFF7B0FF034618460837BD4680BD80B512
:1012DC0082B000AF78607B68002B01D101230EE057
:1012EC007B685B79DBB2002B05D17B6800221A711D
:1012FC007868FFF755FD7B6801225A710023184668
:10130C000837BD4680BD80B487B000AFF860B960C7
:10131C007A6000233B61FB6802225A7100237B61D7
:10132C000AE07B699B00BA681A44FB681B68126868
:10133C001A607B6901337B617A697B689A42F0D3CE
:10134C00FB681B681B683B61FB6801225A713B6997
:10135C0018461C37BD4680BC70470000F0B587B0FE
:10136C0000AFF860B960C7E900230123FB750023C7
:10137C00BB7500237B752F4B1B7E012B01D10223E8
:10138C0054E02C4B01221A764CF2503000F0A8F8A5
:10139C000346FB75FB7D002B44D1FB68012B02D16E
:1013AC0001237B7507E0FB68022B02D102237B75BE
:1013BC0001E004237B750023BB752DE0BB7D5A0037
:1013CC00BB6802EB030CBB7D1901D7E90023C1F10B
:1013DC002006A1F1200022FA01F403FA06F63443A8
:1013EC0023FA00F0044323FA01F5A3B21946604630
:1013FC0000F05AF84CF2503000F072F80346FB75CE
:10140C000D4B1B690C4A23F001031361FB7D002B70
:10141C0007D1BB7D0133BB75BA7D7B7D9A42CDD3A1
:10142C0000E000BF034B00221A76FB7D18461C37E8
:10143C00BD46F0BDF00100200020024080B483B016
:10144C0000AF0023FB710D4B1B6903F08003002BD5
:10145C000DD00A4B0A4A5A60084B0A4A5A60074B8D
:10146C001B6903F08003002B01D00123FB71FB7976
:10147C0018460C37BD4680BC704700BF00200240A8
:10148C0023016745AB89EFCD80B400AF054B1B69D9
:10149C00044A43F08003136100231846BD4680BC08
:1014AC00704700BF0020024080B483B000AF78606A
:1014BC000B467B80084B0022DA61084B1B69074AFC
:1014CC0043F0010313617B687A881A8000BF0C37E4
:1014DC00BD4680BC704700BFF001002000200240D8
:1014EC0080B584B000AF7860FFF7E0FDF86010E0E5
:1014FC007B68B3F1FF3F0CD07B68002B07D0FFF764
:10150C00D5FD0246FB68D31A7A689A4201D20323AE
:10151C0025E0154BDB6803F00103002BE8D1124BDF
:10152C00DB6803F02003002B02D00F4B2022DA6083
:10153C000D4BDB6803F01003002B0BD10A4BDB695E
:10154C0003F00103002B05D1074BDB6803F0040308
:10155C00002B03D000F00AF8012300E0002318460A
:10156C001037BD4680BD00BF0020024080B483B060
:10157C0000AF00237B60234BDB6803F01003002BD0
:10158C0009D0214BDB6943F002031F4AD3617B680E
:10159C0043F010037B601B4BDB6803F00403002B50
:1015AC0009D0194BDB6943F00103174AD3617B68FF
:1015BC0043F004037B60134BDB6903F00103002B46
:1015CC000BD0114BDB6943F004030F4AD3610D4B75
:1015DC00DB690C4A23F00103D3617B6840F20112F2
:1015EC00934206D1074BDB69064A23F00103D36112
:1015FC0002E0044A7B68D36000BF0C37BD4680BC58
:10160C00704700BF00200240F001002080B584B07C
:10161C0000AF786039600123FB730023BB602F4B54
:10162C001B7E012B01D1022353E02C4B01221A7695
:10163C007B681B68022B16D14CF25030FFF750FF21
:10164C000346002B41D1012000F04CF84CF25030F5
:10165C00FFF746FF0346FB73214B1B69204A23F01F
:10166C000403136131E04CF25030FFF739FF0346AD
:10167C00002B2AD13B684FF0FF321A607B689B68C5
:10168C00BB6019E0B86800F049F84CF25030FFF735
:10169C0027FF0346FB73124B1B69114A23F002030D
:1016AC001361FB7B002B03D03B68BA681A600CE01B
:1016BC00BB6803F58063BB607B68DB689A027B6860
:1016CC009B681344BA689A42DCD3044B00221A7606
:1016DC00FB7B18461037BD4680BD00BFF0010020D3
:1016EC000020024080B483B000AF7860094B002228
:1016FC00DA61094B1B69084A43F004031361064B7A
:10170C001B69054A43F04003136100BF0C37BD460B
:10171C0080BC7047F00100200020024080B483B0F0
:10172C0000AF78600B4B0022DA610B4B1B690A4A45
:10173C0043F002031361084A7B685361064B1B6933
:10174C00054A43F04003136100BF0C37BD4680BC13
:10175C00704700BFF00100200020024080B48BB025
:10176C0000AF7860396000237B6200233B6269E143
:10177C0001227B6A02FA03F3FB613B681B68FA697E
:10178C001340BB61BA69FB699A4240F058813B68CF
:10179C005B689A4A93425ED0984A934275D8984AAD
:1017AC00934258D0964A93426FD8964A934252D05D
:1017BC00944A934269D8944A93424CD0924A9342A9
:1017CC0063D8924A934246D0904A93425DD8122BEA
:1017DC002AD8122B59D801A252F823F0631800080A
:1017EC003D1800084F1800089118000897180008B9
:1017FC009718000897180008971800089718000801
:10180C0097180008971800089718000897180008F0
:10181C0097180008971800089718000897180008E0
:10182C004518000859180008794A934213D02CE047
:10183C003B68DB683B6229E03B68DB6804333B6256
:10184C0024E03B68DB6808333B621FE03B68DB68E5
:10185C000C333B621AE03B689B68002B02D10423DB
:10186C003B6213E03B689B68012B05D108233B626C
:10187C007B68FA691A6109E008233B627B68FA69A4
:10188C005A6103E000233B6200E000BFBB69FF2B01
:10189C0001D87B6801E07B6804337B61BB69FF2B5B
:1018AC0002D87B6A9B0002E07B6A083B9B003B6191
:1018BC007B691A680F213B6901FA03F3DB431A4079
:1018CC00396A3B6901FA03F31A437B691A603B6876
:1018DC005B6803F08053002B00F0B1804D4B9B698B
:1018EC004C4A43F0010393614A4B9B6903F001039B
:1018FC00BB60BB68484A7B6A9B08023352F82330B2
:10190C00FB607B6A03F003039B000F2202FA03F3D4
:10191C00DB43FA681340FB607B68404A934213D068
:10192C007B683F4A93420DD07B683E4A934207D076
:10193C007B683D4A934201D1032306E0042304E073
:10194C00022302E0012300E000237A6A02F0030282
:10195C0092009340FA681343FB602F497B6A9B0803
:10196C000233FA6841F823203B685B6803F4801368
:10197C00002B06D02D4B9A682C49BB6913438B6006
:10198C0006E02A4B9A68BB69DB43284913408B60FD
:10199C003B685B6803F40013002B06D0234BDA681A
:1019AC002249BB691343CB6006E0204BDA68BB6964
:1019BC00DB431E491340CB603B685B6803F4003388
:1019CC00002B06D0194B5A681849BB6913434B605E
:1019DC0006E0164B5A68BB69DB43144913404B6055
:1019EC003B685B6803F48033002B21D00F4B1A68E3
:1019FC000E49BB6913430B6021E000BF000032109D
:101A0C000000311000002210000021100000121004
:101A1C0000001110001002400000014000080140BD
:101A2C00000C014000100140001401400004014072
:101A3C000B4B1A68BB69DB43094913400B607B6A8B
:101A4C0001337B623B681A687B6A22FA03F3002B32
:101A5C007FF48EAE00BF00BF2C37BD4680BC7047F4
:101A6C000004014080B485B000AF78600B467B80E9
:101A7C007B689A687B881340002B02D00123FB7390
:101A8C0001E00023FB73FB7B18461437BD4680BC7A
:101A9C00704780B483B000AF78600B467B801346F0
:101AAC007B707B78002B03D07A887B681A6103E00B
:101ABC007B881A047B681A6100BF0C37BD4680BC5A
:101ACC007047000080B586B000AF78607B68002B53
:101ADC0001D1012372E27B681B6803F00103002B28
:101AEC0000F08780924B5B6803F00C03042B0CD046
:101AFC008F4B5B6803F00C03082B12D18C4B5B688B
:101B0C0003F48033B3F5803F0BD1894B1B6803F48E
:101B1C000033002B6CD07B685B68002B68D10123F1
:101B2C004CE27B685B68B3F5803F06D1804B1B6849
:101B3C007F4A43F4803313602EE07B685B68002B94
:101B4C000CD17B4B1B687A4A23F480331360784B9F
:101B5C001B68774A23F4802313601DE07B685B6865
:101B6C00B3F5A02F0CD1724B1B68714A43F4802340
:101B7C0013606F4B1B686E4A43F4803313600BE0A9
:101B8C006B4B1B686A4A23F480331360684B1B68E9
:101B9C00674A23F4802313607B685B68002B13D0A7
:101BAC00FFF784FA386108E0FFF780FA02463B69D8
:101BBC00D31A642B01D9032300E25D4B1B6803F499
:101BCC000033002BF0D014E0FFF770FA386108E016
:101BDC00FFF76CFA02463B69D31A642B01D9032335
:101BEC00ECE1534B1B6803F40033002BF0D100E005
:101BFC0000BF7B681B6803F00203002B63D04C4BC7
:101C0C005B6803F00C03002B0BD0494B5B6803F0B3
:101C1C000C03082B1CD1464B5B6803F48033002B60
:101C2C0016D1434B1B6803F00203002B05D07B68D5
:101C3C001B69012B01D00123C0E13D4B1B6823F034
:101C4C00F8027B685B69DB00394913430B603AE0AF
:101C5C007B681B69002B20D0364B01221A60FFF7E2
:101C6C0025FA386108E0FFF721FA02463B69D31ADE
:101C7C00022B01D90323A1E12D4B1B6803F00203B6
:101C8C00002BF0D02A4B1B6823F0F8027B685B69B1
:101C9C00DB00274913430B6015E0264B00221A602A
:101CAC00FFF704FA386108E0FFF700FA02463B69D7
:101CBC00D31A022B01D9032380E11D4B1B6803F0BF
:101CCC000203002BF0D17B681B6803F00803002B88
:101CDC003AD07B689B69002B19D0174B01221A60F4
:101CEC00FFF7E4F9386108E0FFF7E0F902463B69D9
:101CFC00D31A022B01D9032360E10D4B5B6A03F06D
:101D0C000203002BF0D0012000F0CEFA1CE00A4BAD
:101D1C0000221A60FFF7CAF938610FE0FFF7C6F925
:101D2C0002463B69D31A022B08D9032346E100BFB4
:101D3C00001002400000424280044242924B5B6A17
:101D4C0003F00203002BE9D17B681B6803F004034A
:101D5C00002B00F0A6800023FB758B4BDB6903F096
:101D6C008053002B0DD1884BDB69874A43F080539D
:101D7C00D361854BDB6903F08053BB60BB680123E7
:101D8C00FB75824B1B6803F48073002B18D17F4BBF
:101D9C001B687E4A43F480731360FFF787F9386140
:101DAC0008E0FFF783F902463B69D31A642B01D98B
:101DBC00032303E1754B1B6803F48073002BF0D0F5
:101DCC007B68DB68012B06D16F4B1B6A6E4A43F0B4
:101DDC00010313622DE07B68DB68002B0CD16A4B8E
:101DEC001B6A694A23F001031362674B1B6A664A3C
:101DFC0023F0040313621CE07B68DB68052B0CD119
:101E0C00614B1B6A604A43F0040313625E4B1B6A0E
:101E1C005D4A43F0010313620BE05B4B1B6A5A4AA9
:101E2C0023F001031362584B1B6A574A23F0040337
:101E3C0013627B68DB68002B15D0FFF737F938612C
:101E4C000AE0FFF733F902463B69D31A41F28832B4
:101E5C00934201D90323B1E04B4B1B6A03F00203FD
:101E6C00002BEED014E0FFF721F938610AE0FFF700
:101E7C001DF902463B69D31A41F28832934201D9CB
:101E8C0003239BE0404B1B6A03F00203002BEED1B3
:101E9C00FB7D012B05D13C4BDB693B4A23F0805386
:101EAC00D3617B68DB69002B00F08780364B5B6865
:101EBC0003F00C03082B61D07B68DB69022B46D145
:101ECC00334B00221A60FFF7F1F8386108E0FFF796
:101EDC00EDF802463B69D31A022B01D903236DE0BE
:101EEC00294B1B6803F00073002BF0D17B681B6A35
:101EFC00B3F5803F08D1244B5B6823F400327B6838
:101F0C009B68214913434B601F4B5B6823F474128D
:101F1C007B68196A7B685B6A0B431B4913434B60F4
:101F2C001B4B01221A60FFF7C1F8386108E0FFF77C
:101F3C00BDF802463B69D31A022B01D903233DE0BD
:101F4C00114B1B6803F00073002BF0D035E0104BE5
:101F5C0000221A60FFF7AAF8386108E0FFF7A6F82C
:101F6C0002463B69D31A022B01D9032326E0064B08
:101F7C001B6803F00073002BF0D11EE07B68DB695B
:101F8C00012B07D1012319E0001002400070004022
:101F9C00600042420B4B5B68FB60FB6803F48032D1
:101FAC007B681B6A9A4206D1FB6803F470127B684B
:101FBC005B6A9A4201D0012300E0002318461837CF
:101FCC00BD4680BD0010024080B584B000AF786083
:101FDC0039607B68002B01D10123D0E06A4B1B6870
:101FEC0003F007033A689A4210D9674B1B6823F039
:101FFC00070265493B6813430B60634B1B6803F096
:10200C0007033A689A4201D00123B8E07B681B6849
:10201C0003F00203002B20D07B681B6803F0040341
:10202C00002B05D0594B5B68584A43F4E06353606E
:10203C007B681B6803F00803002B05D0534B5B68CF
:10204C00524A43F460535360504B5B6823F0F002E8
:10205C007B689B684D4913434B607B681B6803F09E
:10206C000103002B40D07B685B68012B07D1474BE9
:10207C001B6803F40033002B15D101237FE07B6830
:10208C005B68022B07D1414B1B6803F00073002BDC
:10209C0009D1012373E03D4B1B6803F00203002BB5
:1020AC0001D101236BE0394B5B6823F003027B68A1
:1020BC005B68364913434B60FEF7F8FFF8600AE0A3
:1020CC00FEF7F4FF0246FB68D31A41F288329342C2
:1020DC0001D9032353E02D4B5B6803F00C027B68A2
:1020EC005B689B009A42EBD1274B1B6803F00703FC
:1020FC003A689A4210D2244B1B6823F007022249FB
:10210C003B6813430B60204B1B6803F007033A68D2
:10211C009A4201D0012332E07B681B6803F0040370
:10212C00002B08D0194B5B6823F4E0627B68DB68FA
:10213C00164913434B607B681B6803F00803002BA4
:10214C0009D0124B5B6823F460527B681B69DB007F
:10215C000E4913434B6000F021F802460B4B5B68B1
:10216C001B0903F00F030A49CB5C22FA03F3094A5B
:10217C001360094B1B681846FEF756FF00231846E0
:10218C001037BD4680BD00BF002002400010024049
:10219C00443500080C0000201000002080B487B0EB
:1021AC0000AF0023FB600023BB6000237B61002396
:1021BC007B6000233B611E4B5B68FB60FB6803F09C
:1021CC000C03042B02D0082B03D027E0194B3B61E6
:1021DC0027E0FB689B0C03F00F03174AD35C7B6072
:1021EC00FB6803F48033002B10D0114B5B685B0C45
:1021FC0003F00103114AD35CBB607B680D4A03FBFF
:10220C0002F2BB68B2FBF3F37B6104E07B680C4A1F
:10221C0002FB03F37B617B693B6102E0054B3B6195
:10222C0000BF3B6918461C37BD4680BC704700BFD9
:10223C000010024000127A005C3500086C35000872
:10224C0000093D0080B400AF024B1B681846BD4628
:10225C0080BC70470C00002080B500AFFFF7F2FF88
:10226C000246054B5B681B0A03F007030349CB5C72
:10227C0022FA03F3184680BD0010024054350008C2
:10228C0080B500AFFFF7DEFF0246054B5B68DB0A4B
:10229C0003F007030349CB5C22FA03F3184680BD15
:1022AC00001002405435000880B485B000AF78604F
:1022BC000A4B1B680A4AA2FB03235B0A7A6802FBDF
:1022CC0003F3FB6000BFFB685A1EFA60002BF9D1C8
:1022DC0000BF00BF1437BD4680BC70470C00002007
:1022EC00D34D621080B582B000AF78607B68002B54
:1022FC0001D1012342E07B6893F84130DBB2002B23
:10230C0006D17B68002283F840207868FEF766FDD2
:10231C007B68242283F841207B681B68DA687B6821
:10232C001B6822F40052DA60786800F0AFF97B6821
:10233C001B681A697B681B6822F490421A617B68DF
:10234C001B685A697B681B6822F02A025A617B68F9
:10235C001B68DA687B681B6842F40052DA607B68A1
:10236C0000225A647B68202283F841207B6820225B
:10237C0083F842207B6800225A63002318460837F2
:10238C00BD4680BD80B58AB002AFF860B9603B60D5
:10239C001346FB8000237B61FB6893F84130DBB272
:1023AC00202B6DD1BB68002B02D0FB88002B01D1F8
:1023BC00012366E0FB6800225A64FB68212283F843
:1023CC004120FEF773FE7861FB68FA889A84FB68FB
:1023DC00FA88DA84FB689B68B3F5805F08D1FB68E8
:1023EC001B69002B04D10023FB61BB68BB6103E0BC
:1023FC00BB68FB610023BB612AE03B6800937B69EF
:10240C0000228021F86800F0D2F80346002B01D09E
:10241C00032336E0FB69002B0BD1BB691B881A46E2
:10242C00FB681B68C2F308025A60BB690233BB61CC
:10243C0007E0FB691A78FB681B685A60FB6901337B
:10244C00FB61FB68DB8C9BB2013B9AB2FB68DA84C4
:10245C00FB68DB8C9BB2002BCFD13B6800937B6974
:10246C0000224021F86800F0A2F80346002B01D0AE
:10247C00032306E0FB68202283F84120002300E0C0
:10248C00022318462037BD4680BD80B58AB002AF06
:10249C00F860B9603B601346FB8000237B61FB68EE
:1024AC0093F84230DBB2202B7CD1BB68002B02D0DE
:1024BC00FB88002B01D1012375E0FB6800225A64D4
:1024CC00FB68222283F84220FB6800221A63FEF785
:1024DC00EDFD7861FB68FA889A85FB68FA88DA85E5
:1024EC00FB689B68B3F5805F08D1FB681B69002B08
:1024FC0004D10023FB61BB68BB6103E0BB68FB61DB
:10250C000023BB6143E03B6800937B6900222021E0
:10251C00F86800F04CF80346002B01D0032342E08E
:10252C00FB69002B0CD1FB681B685B689BB2C3F387
:10253C0008039AB2BB691A80BB690233BB611FE006
:10254C00FB689B68B3F5805F07D0FB689B68002B2A
:10255C000AD1FB681B69002B06D1FB681B685B6802
:10256C00DAB2FB691A7008E0FB681B685B68DBB2C7
:10257C0003F07F03DAB2FB691A70FB690133FB616C
:10258C00FB68DB8D9BB2013B9AB2FB68DA85FB687A
:10259C00DB8D9BB2002BB6D1FB68202283F8422046
:1025AC00002300E0022318462037BD4680BD80B5CD
:1025BC0090B000AFF860B9603B601346FB7150E01F
:1025CC00BB6CB3F1FF3F4CD0BB6C002B07D0FEF7BC
:1025DC006DFD02463B68D31ABA6C9A4241D2FB6835
:1025EC001B680C33BB62BB6A53E8003F7B627B6A9F
:1025FC0023F4D073FB63FB681B680C33FA6B7A63B0
:10260C003B63396B7A6B41E80023FB62FB6A002B5E
:10261C00E5D1FB681B6814337B617B6953E8003F91
:10262C003B613B6923F00103BB63FB681B681433FC
:10263C00BA6B3A62FB61F9693A6A41E80023BB6103
:10264C00BB69002BE5D1FB68202283F84120FB6895
:10265C00202283F84220FB68002283F840200323C9
:10266C000FE0FB681B681A68BB681340BA689A4293
:10267C000CBF01230023DBB21A46FB799A429FD090
:10268C00002318464037BD4680BD000080B584B09D
:10269C0000AF78607B681B681B6923F440517B6832
:1026AC00DA687B681B680A431A617B689A687B68E6
:1026BC001B691A437B685B691343BB607B681B68AF
:1026CC00DB6823F4B05323F00C037A681268B96802
:1026DC000B43D3607B681B685B6923F440717B6898
:1026EC009A697B681B680A435A617B681B682C4A91
:1026FC00934203D1FFF7C4FDF86002E0FFF7ACFD95
:10270C00F860FA6813469B0013449A001A447B68DD
:10271C005B689B00B2FBF3F3224AA2FB03235B0929
:10272C001901FA6813469B0013449A001A447B68FB
:10273C005B689B00B2FBF3F21A4BA3FB02035B0931
:10274C00642000FB03F3D31A1B013233154AA2FB9E
:10275C0003235B0903F0F0031944FA6813469B004A
:10276C0013449A001A447B685B689B00B2FBF3F23B
:10277C000C4BA3FB02035B09642000FB03F3D31A8D
:10278C001B013233074AA2FB03235B0903F00F0240
:10279C007B681B680A449A6000BF1037BD4680BD39
:1027AC00003801401F85EB5100B59BB0009104919E
:1027BC006FF000410591029105490391694600F0C3
:1027CC0095F90022009B1A701BB05DF804FB00BF4A
:1027DC000802FFFF13460A46014602480068FFF74D
:1027EC00E3BF00BF6400002003460244934200D1C3
:1027FC00704703F8011BF9E7014B1868704700BFDD
:10280C006400002070B500260C4D0D4C641BA41008
:10281C00A64209D100F07AFC00260A4D0A4C641B32
:10282C00A410A64205D170BD55F8043B984701365B
:10283C00EEE755F8043B98470136F2E7A43500085B
:10284C00A4350008A4350008A83500087047704767
:10285C0038B50546002940D051F8043C0C1F002B1C
:10286C00B8BFE41800F0DCF81C4A136833B9636095
:10287C0014602846BDE8384000F0D8B8A34208D907
:10288C00206821188B4201BF19685B680918216008
:10289C00EDE71A465B680BB1A342FAD911685018E0
:1028AC00A0420BD120680144501883421160E0D142
:1028BC0018685B68084410605360DAE702D90C238F
:1028CC002B60D6E7206821188B4201BF19685B6822
:1028DC000918216063605460CBE738BD50030020B9
:1028EC0070B50E4E0C463168054611B900F0AAFBC6
:1028FC0030602146284600F0A5FB431C0AD0C41CBE
:10290C0024F00304A04207D0211A284600F09AFBB9
:10291C00013001D14FF0FF34204670BD540300202C
:10292C002DE9F843CD1C25F0030508350C2D38BFD7
:10293C000C25002D074601DBA94205D90C230026E6
:10294C003B603046BDE8F883DFF8D08000F068F8D3
:10295C00D8F800301C465CBB29463846FFF7C0FF50
:10296C00431C044655D1D8F800402646002E45D1CC
:10297C00002C48D023683146384604EB030900F09C
:10298C0061FB81453FD1216838466D1A2946FFF716
:10299C00A7FF013037D023682B442360D8F80030D0
:1029AC00002B38D05A68A2422BD100225A600FE07B
:1029BC002268521B1FD40B2A17D96119A342256018
:1029CC0018BF5960636808BFC8F8001062514B60AB
:1029DC00384604F10B0600F029F826F00706231DF3
:1029EC00F21AAED09B1BA350ABE7A3426268DDD1B9
:1029FC00C8F80020ECE723466468ACE734467668F8
:102A0C00B4E71346CCE70C2338463B6000F00EF8D5
:102A1C0097E72560DCE75B60FFDE00BF500300201A
:102A2C000148FFF713BF00BF4C0300200148FFF71C
:102A3C000EBF00BF4C0300202DE9F0471F468E68E7
:102A4C008246BE420C4690460B682CD88A8912F4FA
:102A5C00906F26D06569096905EB4505A3EB010963
:102A6C0005EBD5757B1C4B446D109D4238BF1D4644
:102A7C00530527D52946FFF753FF064660B34A4650
:102A8C00216900F0FDFAA38923F4906343F08003DD
:102A9C00A38126614E4426603E466561A5EB09057F
:102AAC00A560BE4200D93E4632464146206800F041
:102ABC00AFFA0020A3689B1BA360236833442360F8
:102ACC00BDE8F0872A4600F0E9FA06460028E0D176
:102ADC0050462169FFF7BCFE0C23CAF80030A389CD
:102AEC004FF0FF3043F04003A381E9E72DE9F04FAD
:102AFC0098468B8907461B060D4614469DB00ED58D
:102B0C000B6963B94021FFF70BFF2860286120B9DE
:102B1C000C233B604FF0FF30D0E040236B6100236F
:102B2C00099320238DF8293030234FF00109CDF87B
:102B3C000C80DFF8A0818DF82A3023469A4613F8D2
:102B4C00012B0AB1252AF9D1BAEB040B0BD05B4649
:102B5C00224629463846FFF76FFF013000F0A98066
:102B6C00099A5A4409929AF80030002B00F0A1807F
:102B7C0000234FF0FF32CDE905230AF1010A04933B
:102B8C0007938DF853301A935446052214F8011B01
:102B9C00504800F067FA049AD8B9D00644BF2023F5
:102BAC008DF85330110744BF2B238DF853309AF80E
:102BBC0000302A2B15D0544600204FF00A0C079AEF
:102BCC00214611F8013B303B092B4DD9B0B107928E
:102BDC0014E0A0EB080309FA03F31343A246049391
:102BEC00D2E7039B191D1B680391002BBBBF5B42F3
:102BFC0042F0020207930793B8BF049223782E2B5E
:102C0C000CD163782A2B34D1039B02341A1D1B6818
:102C1C000392002BB8BF4FF0FF330593DFF8B8A039
:102C2C0003225046217800F01DFA38B14022049B53
:102C3C00A0EB0A00824013430134049314F8011BE7
:102C4C00062226488DF8281000F00CFA002838D0FF
:102C5C00234B1BBB039B073323F00703083303935E
:102C6C00099B3344099368E70C4601200CFB0232A4
:102C7C00A6E700234FF00A0C1946013405932046B1
:102C8C0010F8012B303A092A03D9002BC6D0059134
:102C9C00C4E7044601230CFB0121F0E703AB0093CE
:102CAC002A4638460F4B04A9AFF30080421C064657
:102CBC00D6D1AB895B063FF52DAF09981DB0BDE8A9
:102CCC00F08F03AB00932A463846064B04A900F05C
:102CDC007DF8EBE76E350008743500087835000890
:102CEC0000000000452A00082DE9F04716469946D9
:102CFC008A680B6907469342B8BF1346336091F854
:102D0C0043200C46DDF820800AB101333360236880
:102D1C00990642BF336802333360256815F0060507
:102D2C0006D104F1190AE36832689B1AAB422BDC1A
:102D3C0094F84320131E226818BF0123920630D446
:102D4C004946384604F14302C047013023D023687A
:102D5C00226903F00603042B14BF002533684FF0DF
:102D6C00000608BFE56804F11A0408BFED1A54F810
:102D7C00123C08BF25EAE5759342C4BF9B1AED18B7
:102D8C00B5421AD1002008E0012352464946384684
:102D9C00C047013003D14FF0FF30BDE8F08701355B
:102DAC00C1E73020E11881F843005A1C94F8451013
:102DBC002244023382F84310C2E7012322464946DB
:102DCC003846C0470130E6D00136D9E72DE9FF4738
:102DDC000F7E9146782F80460C469A460C9D01F149
:102DEC00430207D8622F0AD8002F00F0D580582F45
:102DFC0000F0C18004F1420584F842703AE0A7F17A
:102E0C006303152BF6D801A151F823F0712E00089D
:102E1C00852E0008012E0008012E0008012E000846
:102E2C00012E0008852E0008012E0008012E000836
:102E3C00012E0008012E00088B2F0008B12E00086F
:102E4C00452F0008012E0008012E0008AD2F0008A8
:102E5C00012E0008B12E0008012E0008012E0008DA
:102E6C004D2F00082B681A1D1B682A6004F14205BF
:102E7C0084F842300123A0E020682B68070603F198
:102E8C000401296001D51E6803E04606FBD5B3F9A1
:102E9C000060002E03DA2D23764284F843300A2397
:102EAC00594812E02B682068191D2960050601D5C8
:102EBC001E6802E04106FBD51E886F2F0CBF08234D
:102ECC000A235148002184F843106568002DA8BFDF
:102EDC002168A560A4BF21F0040121600EB9002D6A
:102EEC004BD01546B6FBF3F103FB1167C75D05F834
:102EFC00017D3746BB420E46F4D9082B0BD1236813
:102F0C00DE0708D5236961689942DEBF302305F8D6
:102F1C00013C05F1FF35521B22614B4621464046D0
:102F2C00CDF800A003AAFFF7DFFE01304AD14FF025
:102F3C00FF3004B0BDE8F087236843F02003236022
:102F4C007827324884F84570236829681F0651F8A1
:102F5C00046B02D45F0648BFB6B2DF0748BF43F02C
:102F6C002003296048BF23601EB9236823F0200387
:102F7C0023601023A6E72448E4E71546BDE72B6839
:102F8C002668181D6169286035061B6801D5196013
:102F9C0002E07006FBD51980002315462361BCE7BF
:102FAC002B6800211A1D2A601D686268284600F0F3
:102FBC0059F808B1401B606063682361002384F8F2
:102FCC004330AAE72A46494640462369D047013098
:102FDC00ADD023689B0713D4E068039B9842B8BF1D
:102FEC001846A6E70123324649464046D0470130F1
:102FFC009DD00135E36803995B1AAB42F2DCEBE739
:10300C00002504F11906F5E77F3500089035000816
:10301C00884210B501EB020402D98442234607D83A
:10302C00431EA14208D011F8012B03F8012FF8E739
:10303C00014602448A4200D110BD13F8014D02F83A
:10304C00014DF7E738B50023054D044608462B60C3
:10305C00FDF772FF431C02D12B6803B1236038BD0E
:10306C0048030020034610B5C9B2024493421846E7
:10307C0001D1002003E0047801338C42F6D110BD5D
:10308C000A44914200F1FF3300D1704710B511F89A
:10309C00014B914203F8014FF9D110BD2DE9F041DC
:1030AC00804614460E4621B91146BDE8F041FFF7A3
:1030BC0037BC2AB9FFF7CCFB25462846BDE8F08182
:1030CC0000F01BF88442074602D8B4EB500F12D81C
:1030DC0021464046FFF724FC05460028EDD0BC42B3
:1030EC002246314628BF3A46FFF7CAFF31464046D2
:1030FC00FFF7AEFBE1E73546DFE751F8043C181F5C
:10310C00002BBCBF0B58C01870470000F8B500BFAF
:10311C00F8BC08BC9E467047F8B500BFF8BC08BCAC
:04312C009E46704704
:10313000444D53473A2057656C636F6D6520746F3B
:1031400020437573746F6D20426F6F744C6F6164B0
:1031500065722E2E2E0A0D00444D53473A20426FC1
:103160006F7420427574746F6E20497320507265BD
:1031700073736564202E2E20476F696E6720746F0D
:1031800020424C204D6F6F640A0D0000444D5347A0
:103190003A20426F6F7420427574746F6E204973C9
:1031A000204E6F742050726573736564202E2E203C
:1031B000476F696E6720746F205573657220417088
:1031C000706C69636174696F6E0A0D0044424D53FF
:1031D000473A20426F6F746C6F6164657220776943
:1031E0006C6C206A756D6220746F20757365722037
:1031F0006170700A0D00000044424D53473A204D63
:1032000053502041646472657373203D20252378F8
:103210000A0D000044424D53473A2041707020523D
:10322000657365742048616E646C657220416464E6
:1032300072657373203D202523780A0D000000007D
:1032400044424D53473A20496E76616C696420636D
:103250006F6D6D616E6420636F6465207265636974
:103260007665642066726F6D20686F73740A000063
:1032700044424D53473A20426F6F74206C6F616433
:1032800065722068616E646C65206765747665722E
:1032900020636F6D6D616E643A0A000044424D53C5
:1032A000473A20436865636B73756D20737563637C
:1032B0006573732E2E0A000044424D53473A204254
:1032C0004C5F56657273696F6E3A20256420252322
:1032D000780A000044424D53473A20436865636BC7
:1032E00073756D206661696C2E2E0A0044424D5341
:1032F000473A20426F6F74206C6F6164657220687A
:10330000616E646C652067657468656C7020636FBE
:103310006D6D616E643A0A0044424D53473A204253
:103320006F6F74206C6F616465722068616E646C8D
:10333000652067657463696420636F6D6D616E6499
:103340003A0A000044424D53473A204368697020CE
:1033500049443A202564202523780A0044424D53ED
:10336000473A20426F6F74206C6F61646572206809
:10337000616E646C652067657472647020636F6D44
:103380006D616E643A0A000044424D53473A205240
:1033900044502056616C75653A20256420252378B9
:1033A0000A00000044424D53473A20426F6F742098
:1033B0006C6F616465722068616E646C6520676F14
:1033C000746F20636F6D6D616E643A0A00000000D7
:1033D00044424D53473A20476F20746F2041646444
:1033E000726573732056616C75653A2025642025DB
:1033F00023780A0044424D53473A204A756D70695C
:103400006E6720746F20416464726573732E2E0A98
:103410000000000044424D53473A20496E76616CEB
:10342000696420416464726573732E2E0A00000083
:1034300044424D53473A20426F6F74206C6F616471
:1034400065722068616E646C6520666C61736820CB
:10345000657261736520636F6D6D616E643A0A0019
:1034600044424D53473A20496E697469616C20703B
:103470006167653A20256420204E756D6265722073
:103480006F662070616765733A2025640A0000004A
:1034900044424D53473A20466C617368204572613F
:1034A0007365207374617475733A2025640000009D
:1034B00044424D53473A20426F6F74206C6F6164F1
:1034C00065722068616E646C65204D656D20577271
:1034D00069746520636F6D6D616E643A0A00000067
:1034E00044424D53473A204D656D6F727920777293
:1034F00069746520616464726573732025642E2E7F
:103500002E0A000044424D53473A204D656D6F72BC
:103510007920616464726573732076616C69642ECE
:103520002E2E0A0044424D53473A20466C61736880
:10353000205772697465207374617475733A20251D
:10354000640000000000000000000000010203040D
:103550000607080900000000010203040203040535
:10356000060708090A0B0C0D0E0F10100102232D7F
:10357000302B2000686C4C0065666745464700307C
:1035800031323334353637383941424344454600C9
:1035900030313233343536373839616263646566C9
:0435A0000000000027
:0435A40031010008E9
:0435A8000D01000809
:1035AC005152535455565758595A00000024F400A0
:1035BC0010000000010000000000000010020020BC
:1035CC0078020020E0020020000000000000000053
:1035DC0000000000000000000000000000000000DF
:1035EC0000000000000000000000000000000000CF
:1035FC0000000000000000000000000000000000BF
:08360C0000000000180000207E
:0400000508000FBD23
:00000001FF
